S00F00004D61657374726F2E737265633A
S11300000C9434000C9451000C9451000C94510045
S11300100C9451000C9451000C9451000C94510018
S11300200C9451000C9451000C9451000C94510008
S11300300C9451000C9451000C9451000C945100F8
S11300400C9451000C9451000C9451000C945100E8
S11300500C9451000C9451000C9451000C945100D8
S11300600C9451000C94510011241FBECFEFD8E022
S1130070DEBFCDBF11E0A0E0B1E0EEE5F3E002C0E9
S113008005900D92AA30B107D9F721E0AAE0B1E0BA
S113009001C01D92AE30B207E1F70E9489010C94B1
S11300A0AD010C94000082E08093B8001092B90076
S11300B084E08093BC00089584EA8093BC0080911E
S11300C0BC008823E4F78091B900887F883021F050
S11300D0803119F481E0089581E008958093BB0094
S11300E084E88093BC008091BC008823E4F780916D
S11300F0B900887F883131F0883231F0803429F4B6
S113010081E0089581E0089581E0089584E9809371
S1130110BC008091BC0084FDFCCF0895CF93C82F10
S113012086E080930D010E945C0080930B01813076
S113013031F0ECEBF0E080818068808310C0809126
S11301400D010E946E0080930B01813019F00E9412
S1130150860005C08C2F0E946E000E948600CF91FD
S1130160089580FF04C09BB191609BB903C09BB10B
S11301709E7F9BB981FF04C09BB192609BB903C071
S11301809BB19D7F9BB982FF04C09BB194609BB9D6
S113019003C09BB19B7F9BB983FF04C09BB1986054
S11301A09BB903C09BB1977F9BB984FF04C09BB1EB
S11301B090619BB903C09BB19F7E9BB985FF04C02E
S11301C09BB190629BB903C09BB19F7D9BB986FF95
S11301D004C09BB190649BB903C09BB19F7B9BB946
S11301E0882324F48BB180688BB908958BB18F7701
S11301F08BB9089595B19E7F95B90E94B10085B1E0
S1130200826085B98FE99FE00197F1F700C0000093
S113021085B18D7F85B98FE99FE00197F1F700C023
S11302200000089585B18E7F85B985B18D7F85B92C
S11302302FEF89EF90E0215080409040E1F700C01B
S1130240000080E30E94FA008FE19EE40197F1F739
S113025000C0000080E30E94FA008FE19EE4019751
S1130260F1F700C0000080E30E94FA008FE39CE9EC
S11302700197F1F700C0000088E30E94FA008CE0C7
S11302800E94FA0081E00E94FA0086E00E94FA00CF
S1130290089581E00E94FA00089595B1916095B99E
S11302A00E94B10085B1826085B98FE99FE0019712
S11302B0F1F700C0000085B18D7F85B98FE99FE01B
S11302C00197F1F700C0000008950F931F93CF9397
S11302D0DF938C01C0E0D0E003C00E944D01219661
S11302E0F801EC0FFD1F80818111F7CFDF91CF91D1
S11302F01F910F910895F8948FEF8AB984B91092E1
S1130300C1000E9412010E9449010E945300789486
S113031008950E947B0180E091E00E9465012FEF27
S113032083ED90E3215080409040E1F700C000004D
S11303300E94490180910A010E948E002FEF83EDF3
S113034090E3215080409040E1F700C0000080918C
S11103500A018F5F80930A01DECFF894FFCF7D
S10D035E486F6C61205556470000FB
S9030000FC
