:100000000C9434000C9449000C9449000C94490061
:100010000C9449000C9449000C9449000C9449003C
:100020000C9449000C9449000C9449000C9449002C
:100030000C9449000C9449000C9449000C9449001C
:100040000C9449000C9449000C9449000C9449000C
:100050000C9449000C9449000C9449000C944900FC
:100060000C9449000C94490011241FBECFEFD8E036
:10007000DEBFCDBF11E0A0E0B1E0EAE6F2E002C0F1
:1000800005900D92AA30B107D9F70E9421010C9476
:1000900033010C94000080FF04C09BB191609BB9B8
:1000A00003C09BB19E7F9BB981FF04C09BB192604E
:1000B0009BB903C09BB19D7F9BB982FF04C09BB1DC
:1000C00094609BB903C09BB19B7F9BB983FF04C025
:1000D0009BB198609BB903C09BB1977F9BB984FF8C
:1000E00004C09BB190619BB903C09BB19F7E9BB93B
:1000F00085FF04C09BB190629BB903C09BB19F7DFB
:100100009BB986FF04C09BB190649BB903C09BB1AF
:100110009F7B9BB9882324F48BB180688BB90895A9
:100120008BB18F778BB9089595B19E7F95B90E9459
:100130004B0085B1826085B98FE99FE00197F1F7A7
:1001400000C0000085B18D7F85B98FE99FE00197E0
:10015000F1F700C00000089585B18E7F85B985B1A3
:100160008D7F85B92FEF89EF90E02150804090403E
:10017000E1F700C0000080E30E9494008FE19EE45C
:100180000197F1F700C0000080E30E9494008FE126
:100190009EE40197F1F700C0000080E30E94940004
:1001A0008FE39CE90197F1F700C0000088E30E940B
:1001B00094008CE00E94940081E00E94940086E00C
:1001C0000E949400089581E00E949400089595B1E2
:1001D000916095B90E944B0085B1826085B98FE925
:1001E0009FE00197F1F700C0000085B18D7F85B9D0
:1001F0008FE99FE00197F1F700C0000008950F9389
:100200001F93CF93DF938C01C0E0D0E003C00E9426
:10021000E7002196F801EC0FFD1F80818111F7CFD7
:10022000DF91CF911F910F910895F8948FEF8AB9C4
:1002300084B91092C1000E94AC000E94E30078943F
:1002400008950E94150180E091E00E94FF002FEFC9
:1002500081EE94E0215080409040E1F700C0000022
:0A0260000E94E300F0CFF894FFCFF6
:0A026A00486F6C61205556470000F4
:00000001FF
