S00F00004D61657374726F2E737265633A
S11300000C9434000C943E000C943E000C943E007E
S11300100C943E000C943E000C943E000C943E0064
S11300200C943E000C943E000C943E000C943E0054
S11300300C943E000C943E000C943E000C943E0044
S11300400C943E000C943E000C943E000C943E0034
S11300500C943E000C943E000C943E000C943E0024
S11300600C943E000C943E0011241FBECFEFD8E048
S1130070DEBFCDBF0E94E8000C94EB000C9400009E
S113008080FF04C09BB191609BB903C09BB19E7F6C
S11300909BB981FF04C09BB192609BB903C09BB123
S11300A09D7F9BB982FF04C09BB194609BB903C040
S11300B09BB19B7F9BB983FF04C09BB198609BB9A4
S11300C003C09BB1977F9BB984FF04C09BB190612F
S11300D09BB903C09BB19F7E9BB985FF04C09BB1B4
S11300E090629BB903C09BB19F7D9BB986FF04C0FE
S11300F09BB190649BB903C09BB19F7B9BB9882340
S113010024F48BB180688BB908958BB18F778BB948
S1130110089595B19E7F95B90E94400085B1826093
S113012085B98FE99FE00197F1F700C0000085B120
S11301308D7F85B98FE99FE00197F1F700C000003A
S1130140089585B18E7F85B985B18D7F85B92FEFEF
S113015089EF90E0215080409040E1F700C000001A
S113016080E30E9489008FE19EE40197F1F700C0CB
S1130170000080E30E9489008FE19EE40197F1F77B
S113018000C0000080E30E9489008FE39CE901978E
S1130190F1F700C0000088E30E9489008CE00E940F
S11301A0890081E00E94890086E00E948900089508
S11301B081E00E9489000895F8948FEF8AB984B988
S11301C01092C1000E94A1000E94D8007894089562
S10D01D00E94DC00FFCFF894FFCF7B
S9030000FC
