S00F00004D61657374726F2E737265633A
S11300000C9434000C9451000C9451000C94510045
S11300100C9451000C9451000C9451000C94510018
S11300200C9451000C9451000C9451000C94510008
S11300300C9451000C9451000C9451000C945100F8
S11300400C9451000C9451000C9451000C945100E8
S11300500C9451000C9451000C9451000C945100D8
S11300600C9451000C94510011241FBECFEFD8E022
S1130070DEBFCDBF11E0A0E0B1E0EEE3F4E002C0EA
S113008005900D92AA30B107D9F721E0AAE0B1E0BA
S113009001C01D92AE30B207E1F70E94D7010C9463
S11300A01D020C940000CF93C82F9A01AB0187B1B5
S11300B08F7C87B960E074E284EF90E00E94FB01DA
S11300C0CA01B90160517109810991092C2F30E0ED
S11300D0220F331F032E000C440B550B0E94FB010F
S11300E02093B800C43079F018F4C13031F023C043
S11300F0C03191F0C034C9F01EC0E9EBF0E080815A
S11301008C7F80831DC0E9EBF0E080818D7F80834C
S113011080818160808314C0E9EBF0E080818E7F70
S113012080838081826080830BC0E9EBF0E0808172
S11301308D6F808305C0E9EBF0E080818C7F808344
S113014084E08093BC00CF91089584EA8093BC003E
S11301508091BC008823E4F78091B900887F8830BF
S113016021F0803119F481E0089581E008958093AD
S1130170BB0084E88093BC008091BC008823E4F732
S11301808091B900887F883131F0883231F0803431
S113019029F481E0089581E0089581E0089584E9D7
S11301A08093BC008091BC0084FDFCCF0895CF9364
S11301B0C82F86E080930D010E94A50080930B0157
S11301C0813031F0ECEBF0E080818068808310C0F6
S11301D080910D010E94B70080930B01813019F0CA
S11301E00E94CF0005C08C2F0E94B7000E94CF0050
S11301F0CF91089580FF04C09BB191609BB903C067
S11302009BB19E7F9BB981FF04C09BB192609BB957
S113021003C09BB19D7F9BB982FF04C09BB19460D6
S11302209BB903C09BB19B7F9BB983FF04C09BB167
S113023098609BB903C09BB1977F9BB984FF04C0AE
S11302409BB190619BB903C09BB19F7E9BB985FF15
S113025004C09BB190629BB903C09BB19F7D9BB9C5
S113026086FF04C09BB190649BB903C09BB19F7B84
S11302709BB9882324F48BB180688BB908958BB122
S11302808F778BB9089595B19E7F95B90E94FA0036
S113029085B1826085B98FE99FE00197F1F700C0CD
S11302A0000085B18D7F85B98FE99FE00197F1F753
S11302B000C00000089585B18E7F85B985B18D7F1A
S11302C085B92FEF89EF90E0215080409040E1F70D
S11302D000C0000080E30E9443018FE19EE4019787
S11302E0F1F700C0000080E30E9443018FE19EE427
S11302F00197F1F700C0000080E30E9443018FE3FF
S11303009CE90197F1F700C0000088E30E944301D3
S11303108CE00E94430181E00E94430186E00E9438
S11303204301089581E00E944301089595B19160CD
S113033095B90E94FA0085B1826085B98FE99FE082
S11303400197F1F700C0000085B18D7F85B98FE971
S11303509FE00197F1F700C0000008950F931F93E9
S1130360CF93DF938C01C0E0D0E003C00E949601DC
S11303702196F801EC0FFD1F80818111F7CFDF91E9
S1130380CF911F910F910895F8948FEF8AB984B992
S11303901092C1000E945B010E94920140E45DE062
S11303A063E070E084E00E945300789408950E9412
S11303B0C40180E091E00E94AE012FEF83ED90E351
S11303C0215080409040E1F700C000000E9492015B
S11303D080910A010E94D7002FEF83ED90E3215012
S11303E080409040E1F700C0000080910A018F5FD7
S11303F080930A01DECFA1E21A2EAA1BBB1BFD01CA
S11304000DC0AA1FBB1FEE1FFF1FA217B307E407EF
S1130410F50720F0A21BB30BE40BF50B661F771F47
S1130420881F991F1A9469F7609570958095909527
S11104309B01AC01BD01CF010895F894FFCFEC
S10D043E486F6C612055564700001A
S9030000FC
