:100000000C9444000C9461000C9461000C94610009
:100010000C9461000C9461000C9461000C946100DC
:100020000C9461000C9461000C9461000C946100CC
:100030000C9461000C9461000C9461000C946100BC
:100040000C9461000C9461000C9461000C946100AC
:100050000C9461000C9461000C9461000C9461009C
:100060000C9461000C946100180221022A023302F0
:100070003C0245024E0257026002690272027B0294
:1000800084028D0296029F0211241FBECFEFD8E09A
:10009000DEBFCDBF11E0A0E0B1E0E4EAF5E002C0D0
:1000A00005900D92A833B107D9F721E0A8E3B1E09C
:1000B00001C01D92AA33B207E1F70E94F0010C942F
:1000C000D0020C940000CF93C82F9A01AB0187B1E6
:1000D0008F7C87B960E074E284EF90E00E94A80210
:1000E000CA01B90160517109810991092C2F30E0D1
:1000F000220F331F032E000C440B550B0E94A80245
:100100002093B800C43079F018F4C13031F023C026
:10011000C03191F0C034C9F01EC0E9EBF0E080813D
:100120008C7F80831DC0E9EBF0E080818D7F808330
:1001300080818160808314C0E9EBF0E080818E7F54
:1001400080838081826080830BC0E9EBF0E0808156
:100150008D6F808305C0E9EBF0E080818C7F808328
:1001600084E08093BC00CF91089584E98093BC0023
:100170008091BC0084FDFCCF0895CF93DF9394EA77
:100180009093BC009091BC009923E4F79091B90042
:10019000987F9830B1F590E0880F991F8160809327
:1001A000BB0084E88093BC008091BC008823E4F706
:1001B000EB018091B900887F883421F40E94B5005A
:1001C00081E020C0803421F00E94B50081E01AC097
:1001D00084E88093BC008091BC008823E4F7809180
:1001E000B900887F883531F0803521F00E94B50054
:1001F00081E008C08091BB0088830E94B50088819F
:1002000001C081E0DF91CF91089580FF04C09BB1D0
:1002100091609BB903C09BB19E7F9BB981FF04C0D5
:100220009BB192609BB903C09BB19D7F9BB982FF3C
:1002300004C09BB194609BB903C09BB19B7F9BB9E9
:1002400083FF04C09BB198609BB903C09BB1977FAB
:100250009BB984FF04C09BB190619BB903C09BB163
:100260009F7E9BB985FF04C09BB190629BB903C080
:100270009BB19F7D9BB986FF04C09BB190649BB9E5
:1002800003C09BB19F7B9BB9882324F48BB180680A
:100290008BB908958BB18F778BB9089595B19E7FF7
:1002A00095B90E94050185B1826085B98FE99FE00B
:1002B0000197F1F700C0000085B18D7F85B98FE906
:1002C0009FE00197F1F700C00000089585B18E7F8F
:1002D00085B985B18D7F85B92FEF89EF90E02150E9
:1002E00080409040E1F700C0000080E30E944E0192
:1002F0008FE19EE40197F1F700C0000080E30E94C7
:100300004E018FE19EE40197F1F700C0000080E309
:100310000E944E018FE39CE90197F1F700C00000B5
:1003200088E30E944E018CE00E944E0181E00E9411
:100330004E0186E00E944E01089581E00E944E0128
:100340000895811105C080E8860F0E944E0108952E
:10035000813021F480EC860F0E944E01089595B102
:10036000916095B90E94050185B1826085B98FE9D8
:100370009FE00197F1F700C0000085B18D7F85B93E
:100380008FE99FE00197F1F700C0000008950F93F7
:100390001F93CF93DF938C01C0E0D0E003C00E9495
:1003A000AF012196F801EC0FFD1F80818111F7CF7D
:1003B000DF91CF911F910F910895F8948FEF8AB933
:1003C00084B91092C1000E9466010E949D0148EC10
:1003D00050E060E070E084E00E946300789408954B
:1003E0000E94DD018FE39CE90197F1F700C0000056
:1003F00063E080E00E94A10180E091E00E94C701DB
:100400006AE080E00E94A10184E091E00E94C701BF
:1004100068E371E083E00E94BD0080933901E82F1A
:10042000F0E0E031F105F0F6EC5CFF4F0C94CA020D
:100430006AE081E00E94A10188E091E00E94C7018A
:10044000D1CF6AE081E00E94A1018BE091E00E949F
:10045000C701C8CF6AE081E00E94A1018EE091E06F
:100460000E94C701BFCF6AE081E00E94A10181E143
:1004700091E00E94C701B6CF6AE081E00E94A1012D
:1004800084E191E00E94C701ADCF6AE081E00E9463
:10049000A10187E191E00E94C701A4CF6AE081E059
:1004A0000E94A1018AE191E00E94C7019BCF6AE00E
:1004B00081E00E94A1018DE191E00E94C70192CFED
:1004C0006AE081E00E94A10180E291E00E94C70100
:1004D00089CF6AE081E00E94A10183E291E00E945D
:1004E000C70180CF6AE081E00E94A10186E291E02D
:1004F0000E94C70177CF6AE081E00E94A10189E2F2
:1005000091E00E94C7016ECF6AE081E00E94A101E4
:100510008CE291E00E94C70165CF6AE081E00E9411
:10052000A1018FE291E00E94C7015CCF6AE081E007
:100530000E94A10182E391E00E94C70153CF6AE0CB
:1005400081E00E94A10185E391E00E94C7014ACFAA
:10055000A1E21A2EAA1BBB1BFD010DC0AA1FBB1FC7
:10056000EE1FFF1FA217B307E407F50720F0A21B39
:10057000B30BE40BF50B661F771F881F991F1A94A6
:1005800069F760957095809590959B01AC01BD01D0
:10059000CF010895EE0FFF1F0590F491E02D09940F
:0405A000F894FFCFFD
:1005A40053313A0053323A003030003031003032A7
:1005B400003033003034003035003036003037003E
:1005C40030380030390031300031310031320031FF
:0805D400330031340031350021
:00000001FF
