S00F00004D61657374726F2E737265633A
S11300000C9434000C9451000C9451000C94510045
S11300100C9451000C9451000C9451000C94510018
S11300200C9451000C9451000C9451000C94510008
S11300300C9451000C9451000C9451000C945100F8
S11300400C9451000C9451000C9451000C945100E8
S11300500C9451000C9451000C9451000C945100D8
S11300600C9451000C94510011241FBECFEFD8E022
S1130070DEBFCDBF11E0A0E0B1E0E4E7F4E002C0F0
S113008005900D92AC30B107D9F721E0ACE0B1E0B6
S113009001C01D92AE30B207E1F70E94E0010C945A
S11300A038020C940000CF93C82F9A01AB0187B19A
S11300B08F7C87B960E074E284EF90E00E941602BE
S11300C0CA01B90160517109810991092C2F30E0ED
S11300D0220F331F032E000C440B550B0E941602F3
S11300E02093B800C43079F018F4C13031F023C043
S11300F0C03191F0C034C9F01EC0E9EBF0E080815A
S11301008C7F80831DC0E9EBF0E080818D7F80834C
S113011080818160808314C0E9EBF0E080818E7F70
S113012080838081826080830BC0E9EBF0E0808172
S11301308D6F808305C0E9EBF0E080818C7F808344
S113014084E08093BC00CF91089584E98093BC003F
S11301508091BC0084FDFCCF0895CF93DF9394EA93
S11301609093BC009091BC009923E4F79091B9005E
S1130170987F9830B1F590E0880F991F8160809343
S1130180BB0084E88093BC008091BC008823E4F722
S1130190EB018091B900887F883421F40E94A50086
S11301A081E020C0803421F00E94A50081E01AC0C3
S11301B084E88093BC008091BC008823E4F780919C
S11301C0B900887F883531F0803521F00E94A50080
S11301D081E008C08091BB0088830E94A5008881CB
S11301E001C081E0DF91CF91089580FF04C09BB1ED
S11301F091609BB903C09BB19E7F9BB981FF04C0F2
S11302009BB192609BB903C09BB19D7F9BB982FF58
S113021004C09BB194609BB903C09BB19B7F9BB905
S113022083FF04C09BB198609BB903C09BB1977FC7
S11302309BB984FF04C09BB190619BB903C09BB17F
S11302409F7E9BB985FF04C09BB190629BB903C09C
S11302509BB19F7D9BB986FF04C09BB190649BB901
S113026003C09BB19F7B9BB9882324F48BB1806826
S11302708BB908958BB18F778BB9089595B19E7F13
S113028095B90E94F50085B1826085B98FE99FE038
S11302900197F1F700C0000085B18D7F85B98FE922
S11302A09FE00197F1F700C00000089585B18E7FAB
S11302B085B985B18D7F85B92FEF89EF90E0215005
S11302C080409040E1F700C0000080E30E943E01BE
S11302D08FE19EE40197F1F700C0000080E30E94E3
S11302E03E018FE19EE40197F1F700C0000080E336
S11302F00E943E018FE39CE90197F1F700C00000E2
S113030088E30E943E018CE00E943E0181E00E944D
S11303103E0186E00E943E01089581E00E943E0174
S11303200895811105C080E8860F0E943E0108955A
S1130330813021F480EC860F0E943E01089595B12E
S1130340916095B90E94F50085B1826085B98FE905
S11303509FE00197F1F700C0000085B18D7F85B95A
S11303608FE99FE00197F1F700C0000008950F9313
S11303701F93CF93DF938C01C0E0D0E003C00E94B1
S11303809F012196F801EC0FFD1F80818111F7CFA9
S1130390DF91CF911F910F910895F8948FEF8AB94F
S11303A084B91092C1000E9456010E948D0148EC4C
S11303B050E060E070E084E00E9453007894089577
S11303C00E94CD012FEF83ED90E3215080409040B7
S11303D0E1F700C0000063E080E00E94910180E04A
S11303E091E00E94B7016AE080E00E94910184E0FC
S11303F091E00E94B7016CE071E083E00E94AD00DF
S113040080930D01823049F46AE081E00E949101F9
S113041088E091E00E94B701D5CF6AE081E00E94B4
S113042091018AE091E00E94B701CCCFA1E21A2E9B
S1130430AA1BBB1BFD010DC0AA1FBB1FEE1FFF1F84
S1130440A217B307E407F50720F0A21BB30BE40BD4
S1130450F50B661F771F881F991F1A9469F760951B
S11304607095809590959B01AC01BD01CF010895D5
S1070470F894FFCF2A
S10F047453313A0053323A003200310098
S9030000FC
