:100000000C9434000C9446000C9446000C9465004B
:100010000C9446000C9446000C9446000C94460048
:100020000C9446000C9446000C9446000C94460038
:100030000C9446000C9446000C9446000C94460028
:100040000C9446000C9446000C9446000C94460018
:100050000C9446000C9446000C9446000C94460008
:100060000C9446000C94460011241FBECFEFD8E03C
:10007000DEBFCDBF21E0A0E0B1E001C01D92A23003
:10008000B207E1F70E945C000C94C4000C940000DD
:1000900014B88FE08AB983E085B91BB81092C1000B
:1000A000EBE6F0E0808183608083E8E6F0E0808129
:1000B00081608083789408950E9448008FE39CE9D2
:1000C0000197F1F700C00000F9CF1F920F920FB611
:1000D0000F9211242F938F939F93189926C02FEF7F
:1000E00080E792E0215080409040E1F700C000009E
:1000F00080910001909101010196909301018093FC
:1001000000010F9734F08FE090E09093010180930D
:100110000001809100018BB906C08FE39CE9019733
:10012000F1F700C00000189BF8CF199925C09FEF88
:1001300020E782E0915020408040E1F700C00000BD
:1001400080910001909101010197909301018093AA
:1001500000011816190624F01092010110920001F6
:10016000809100018BB906C08FE39CE90197F1F7FC
:1001700000C00000199BF8CF9F918F912F910F9095
:0C0180000FBE0F901F901895F894FFCF51
:00000001FF
