:100000000C9434000C9446000C9446000C9473003D
:100010000C9446000C9446000C9446000C94460048
:100020000C9446000C9446000C9446000C94460038
:100030000C9446000C9446000C9446000C94460028
:100040000C9446000C9446000C9446000C94460018
:100050000C9446000C9446000C9446000C94460008
:100060000C94D2000C94460011241FBECFEFD8E0B0
:10007000DEBFCDBF21E0A0E0B1E001C01D92A43001
:10008000B207E1F70E946A000C9423010C9400006F
:1000900097B19F7C97B9880F81608093BA0085E4FF
:1000A0008093BC00089514B88FE08AB983E085B9C5
:1000B0001BB81092C100EBE6F0E080818360808382
:1000C000E8E6F0E080818160808383E00E94480060
:1000D000789408950E9453008FE39CE90197F1F70B
:1000E00000C00000F9CF1F920F920FB60F9211249B
:1000F0002F938F939F93189926C02FEF8DEE92E048
:10010000215080409040E1F700C000008091000144
:1001100090910101019690930101809300010F9746
:1001200034F08FE090E09093010180930001809182
:1001300000018BB906C08FE39CE90197F1F700C07D
:100140000000189BF8CF199925C09FEF2DEE82E093
:10015000915020408040E1F700C0000080910001F4
:10016000909101010197909301018093000118166D
:10017000190624F0109201011092000180910001F3
:100180008BB906C08FE39CE90197F1F700C000002E
:10019000199BF8CF9F918F912F910F900FBE0F90C9
:1001A0001F9018951F920F920FB60F9211248F93E4
:1001B0009F93EF93FF938091B9008C7F8039C9F0B2
:1001C00038F4803781F08038A1F0803671F50BC0AB
:1001D000883BE1F018F4883AC9F027C0803CF9F078
:1001E000883CE9F022C0ECEBF0E0808180688083FD
:1001F00021C08091BB0090E09093030180930201A5
:10020000ECEBF0E080818068808314C08091000175
:100210008093BB00ECEBF0E08081856C8083ECEB9D
:10022000F0E08081846C808305C0ECEBF0E080819D
:1002300080698083FF91EF919F918F910F900FBE06
:0A0240000F901F901895F894FFCF5F
:00000001FF
