:100000000C9434000C9446000C9446000C9465004B
:100010000C9446000C9446000C9446000C94460048
:100020000C9446000C9446000C9446000C94460038
:100030000C9446000C9446000C9446000C94460028
:100040000C9446000C9446000C9446000C94460018
:100050000C9446000C9446000C9446000C94460008
:100060000C9446000C94460011241FBECFEFD8E03C
:10007000DEBFCDBF21E0A0E0B1E001C01D92A13004
:10008000B207E1F70E945C000C94B6000C940000EB
:1000900014B88FE08AB983E085B91BB81092C1000B
:1000A000EBE6F0E0808183608083E8E6F0E0808129
:1000B00081608083789408950E9448008FE39CE9D2
:1000C0000197F1F700C00000F9CF1F920F920FB611
:1000D0000F9211242F938F939F9318991FC02FEF86
:1000E00089EF90E0215080409040E1F700C000008F
:1000F000809100018F5F809300018F3018F08FE0B6
:1001000080930001809100018BB906C08FE39CE9C8
:100110000197F1F700C00000189BF8CF19991EC095
:100120009FEF29EF80E0915020408040E1F700C030
:10013000000080910001815080930001811102C074
:1001400010920001809100018BB906C08FE39CE9F9
:100150000197F1F700C00000199BF8CF9F918F9194
:100160002F910F900FBE0F901F901895F894FFCF0E
:00000001FF
