S01500004573636C61766F20315F706F742E737265633F
S11300000C9434000C9446000C9446000C94460066
S11300100C9446000C9446000C9446000C94460044
S11300200C9446000C9446000C9446000C94460034
S11300300C9446000C9446000C9446000C94460024
S11300400C9446000C9446000C9446000C94460014
S11300500C9446000C947C000C9446000C944600CE
S11300600C9446000C94460011241FBECFEFD8E038
S1130070DEBFCDBF21E0A0E0B1E001C01D92A13000
S1130080B207E1F70E946B000C9495000C940000F9
S1130090ECE7F0E01082AEE7B0E08C9181608C93E5
S11300A080818062808380818064808380818F7777
S11300B08083EAE7F0E080818860808380818760C4
S11300C080838081806880830895F89417B80E94A3
S11300D04800789408950E946500EAE7F0E0808182
S11300E0806480832FEF89EF90E02150804090401E
S11300F0E1F700C00000F1CF1F920F920FB60F92EC
S113010011248F93EF93FF938091790080930001E2
S1130110EAE7F0E0808180618083FF91EF918F9125
S11101200F900FBE0F901F901895F894FFCF0C
S9030000FC
