:100000000C9434000C9451000C9451000C94510049
:100010000C9451000C9451000C9451000C9451001C
:100020000C9451000C9451000C9451000C9451000C
:100030000C9451000C9451000C9451000C945100FC
:100040000C9451000C9451000C9451000C945100EC
:100050000C9451000C9470000C9451000C945100BD
:100060000C9451000C94510011241FBECFEFD8E026
:10007000DEBFCDBF11E0A0E0B1E0EAE8F8E002C0E9
:1000800005900D92AC3AB107D9F721E0ACEAB1E0A6
:1000900001C01D92AE3EB207E1F70E94D7000C945A
:1000A00043040C940000ECE7F0E01082AEE7B0E00F
:1000B0008C9181608C938081806280838081806458
:1000C000808380818F778083EAE7F0E08081886099
:1000D00080838081876080838081806880830895A9
:1000E0001F920F920FB60F9211248F939F93EF934D
:1000F000FF9380917800909179009093AD01809367
:10010000AC01EAE7F0E0808180618083FF91EF91AC
:100110009F918F910F900FBE0F901F90189580E0C8
:1001200091E00E941C0185E191E00E941C0181E3A5
:1001300091E00E941C0185E491E00E941C01089559
:10014000F89417B80E94530060E875E280E090E0F0
:100150000E94F9000E948F0078940895813301F580
:100160008091AC019091AD019F938F938DE591E0CB
:100170009F938F931F9280E48F938EEA91E09F93D9
:100180008F930E944B018EEA91E00E941C018DB773
:100190009EB708960FB6F8949EBF0FBE8DBF04C0E1
:1001A0008FE691E00E941C010E948F0008950E943A
:1001B000A000EAE7F0E08081806480832FEF89EF80
:1001C00090E0215080409040E1F700C00000809115
:1001D000C000882324F40E9415010E94AE002FEF76
:1001E00089E698E1215080409040E1F700C000008E
:1001F000E0CF9B01AC0164E274EF80E090E00E94EC
:100200002901215031093093C5002093C40088E1B1
:100210008093C10086E08093C20008959091C00051
:1002200095FFFCCF8093C60008958091C00088237D
:10023000E4F78091C6000895CF93DF93EC0103C0EB
:1002400021960E940E0188818111FACFDF91CF9112
:100250000895A1E21A2EAA1BBB1BFD010DC0AA1F07
:10026000BB1FEE1FFF1FA217B307E407F50720F01F
:10027000A21BB30BE40BF50B661F771F881F991F9A
:100280001A9469F760957095809590959B01AC01E3
:10029000BD01CF010895AEE0B0E0E1E5F1E00C94DE
:1002A0001A040D891E898F89988D26E02C831A8364
:1002B000098397FF02C080E090E801979E838D83B9
:1002C000AE01455E5F4F698D7A8DCE0101960E9429
:1002D0007B014D815E8157FD0AC02F813885421711
:1002E00053070CF49A01F801E20FF31F10822E96C7
:1002F000E4E00C943604ABE0B0E0E1E8F1E00C940B
:100300000C046C017B018A01FC0117821682838137
:1003100081FFCCC1CE0101963C01F6019381F7012A
:1003200093FD859193FF81917F01882309F4BAC1E0
:10033000853239F493FD859193FF81917F01853258
:1003400029F4B60190E00E947203E7CF912C212C92
:10035000312CFFE1F315D8F08B3279F038F480328C
:1003600079F08332A1F4232D20611DC08D3261F01C
:10037000803369F4232D216016C0832D8260382ECE
:10038000E32DE4603E2E2AC0F32DF8601DC037FC3B
:100390002DC020ED280F2A3040F08E32B9F436FC03
:1003A00081C1232D2064322E19C036FE06C08AE09A
:1003B000989E200D1124922E11C0EAE02E9E200D51
:1003C0001124222EF32DF0623F2E08C08C3621F42A
:1003D000832D8068382E02C0883641F4F70193FDE2
:1003E000859193FF81917F018111B3CF982F9F7DDC
:1003F0009554933028F40C5F1F4F9FE399830DC0F1
:10040000833631F0833771F0833509F059C021C04C
:10041000F801808189830E5F1F4F88248394912C7B
:10042000530113C02801F2E04F0E511CF801A080C7
:10043000B18036FE03C0692D70E002C06FEF7FEF20
:10044000C5010E9467034C018201F32DFF773F2E07
:1004500016C0280122E0420E511CF801A080B18094
:1004600036FE03C0692D70E002C06FEF7FEFC5015B
:100470000E945C034C01F32DF0683F2E820133FC97
:100480001BC0822D90E088169906B0F4B60180E278
:1004900090E00E9472032A94F4CFF50137FC859115
:1004A00037FE81915F01B60190E00E947203211036
:1004B0002A9421E0821A91088114910471F7E8C00E
:1004C000843611F0893641F5F80137FE07C06081A6
:1004D0007181828193810C5F1F4F08C0608171819F
:1004E000072E000C880B990B0E5F1F4FF32DFF7624
:1004F0003F2E97FF09C090958095709561957F4F2D
:100500008F4F9F4FF0683F2E2AE030E0A3010E94FA
:10051000AE03882E861845C0853731F4232D2F7EF3
:10052000B22E2AE030E025C0932D997FB92E8F3668
:10053000C1F018F4883579F0B5C0803719F08837E4
:1005400021F0B0C0E92FE061BE2EB4FE0DC0FB2D3E
:10055000F460BF2E09C034FE0AC0292F2660B22ED7
:1005600006C028E030E005C020E130E002C020E114
:1005700032E0F801B7FE07C060817181828193810A
:100580000C5F1F4F06C06081718180E090E00E5FBC
:100590001F4FA3010E94AE03882E8618FB2DFF7704
:1005A0003F2E36FE0DC0232D2E7FA22E891458F427
:1005B00034FE0BC032FC09C0832D8E7EA82E05C0F0
:1005C000B82CA32C03C0B82C01C0B92CA4FE0FC0BA
:1005D000FE01E80DF11D8081803321F49A2D997E72
:1005E000A92E09C0A2FE06C0B394B39404C08A2DFC
:1005F000867809F0B394A3FC11C0A0FE06C0B21423
:1006000088F4280C922C9B180EC0B21460F4B6012A
:1006100080E290E00E947203B394F7CFB21418F412
:100620002B1802C0982C212CA4FE10C0B60180E328
:1006300090E00E947203A2FE17C0A1FC03C088E7ED
:1006400090E002C088E590E0B6010CC08A2D867863
:1006500059F0A1FE02C08BE201C080E2A7FC8DE24E
:10066000B60190E00E947203891438F4B60180E369
:1006700090E00E9472039A94F7CF8A94F301E80DF8
:10068000F11D8081B60190E00E9472038110F5CFC8
:10069000222009F442CEB60180E290E00E9472036B
:1006A0002A94F6CFF6018681978102C08FEF9FEFE3
:1006B0002B96E2E10C942804FC01059061507040F7
:1006C0000110D8F7809590958E0F9F1F0895FC011B
:1006D0006150704001900110D8F7809590958E0F71
:1006E0009F1F08950F931F93CF93DF93FB012381E7
:1006F00021FD03C08FEF9FEF2CC022FF16C0468163
:100700005781248135814217530744F4A081B18178
:100710009D012F5F3F4F318320838C93268137814A
:100720002F5F3F4F3783268314C08B01EC01FB0101
:100730000084F185E02D0995892BE1F6D801169604
:100740008D919C911797019617969C938E9316976F
:10075000CE01DF91CF911F910F910895FA01AA2741
:10076000283051F1203181F1E8946F936E7F6E5FF4
:100770007F4F8F4F9F4FAF4FB1E03ED0B4E03CD0A2
:10078000670F781F891F9A1FA11D680F791F8A1F85
:10079000911DA11D6A0F711D811D911DA11D20D0EC
:1007A00009F468943F912AE0269F11243019305DA6
:1007B0003193DEF6CF010895462F4770405D419397
:1007C000B3E00FD0C9F7F6CF462F4F70405D4A33E4
:1007D00018F0495D31FD4052419302D0A9F7EACFAC
:1007E000B4E0A6959795879577956795BA95C9F7DB
:1007F00000976105710508959B01AC010A2E0694CE
:100800005795479537952795BA95C9F7620F731F86
:10081000841F951FA01D08952F923F924F925F92C3
:100820006F927F928F929F92AF92BF92CF92DF9200
:10083000EF92FF920F931F93CF93DF93CDB7DEB765
:10084000CA1BDB0B0FB6F894DEBF0FBECDBF0994F9
:100850002A88398848885F846E847D848C849B8450
:10086000AA84B984C884DF80EE80FD800C811B815E
:10087000AA81B981CE0FD11D0FB6F894DEBF0FBE8D
:0A088000CDBFED010895F894FFCFFD
:10088A000D0A2A2A2A2A2A204D656E75202A2A2A22
:10089A002A2A0D0A00312E204D6F7374726172205C
:1008AA0076616C6F726573206465204144430D0A5A
:1008BA00002A2A2A2A2A2A2A2A2A2A2A2A2A2A2AB8
:1008CA002A2A0D0A0053656C656363696F6E652099
:1008DA00756E61206F706369F36E3A200056616C21
:1008EA006F726573204144433A2025750D0A004F03
:1008FA00706369F36E20696E76E16C6964612E201B
:10090A00506F72206661766F722C2073656C656316
:10091A0063696F6E6520756E61206F706369F36E2F
:0C092A002076E16C6964612E0D0A00006B
:00000001FF
