:100000000C9434000C9446000C9446000C9446006A
:100010000C9446000C9446000C9446000C94460048
:100020000C9446000C9446000C9446000C94460038
:100030000C9446000C9446000C9446000C94460028
:100040000C9446000C9446000C9446000C94460018
:100050000C9446000C948A000C9446000C944600C4
:100060000C94A3000C94460011241FBECFEFD8E0DF
:10007000DEBFCDBF21E0A0E0B1E001C01D92A43001
:10008000B207E1F70E9479000C94EF000C94000095
:10009000ECE7F0E01082AEE7B0E08C9181608C93E9
:1000A00080818062808380818064808380818F777B
:1000B0008083EAE7F0E080818860808380818760C8
:1000C0008083808180688083089597B19F7C97B9F1
:1000D000880F81608093BA0085E48093BC00089506
:1000E000F89417B80E94480082E00E946500789456
:1000F00008950E947000EAE7F0E0808180648083C8
:100100002FEF89EF90E0215080409040E1F700C050
:100110000000F1CF1F920F920FB60F9211248F9310
:10012000EF93FF938091790080930001EAE7F0E07C
:10013000808180618083FF91EF918F910F900FBE3E
:100140000F901F9018951F920F920FB60F921124C7
:100150008F93EF93FF938091B9008C7F8039C9F022
:1001600038F4803781F08038A1F0803659F50BC023
:10017000883BC9F018F4883AB1F024C0803CE1F023
:10018000883CD1F01FC0ECEBF0E080818068808378
:100190001EC08091BB0080930201ECEBF0E08081F7
:1001A0008068808314C0809100018093BB00ECEBD9
:1001B000F0E08081856C8083ECEBF0E08081846CE2
:1001C000808305C0ECEBF0E0808180698083FF9143
:1001D000EF918F910F900FBE0F901F901895F8948C
:0201E000FFCF4F
:00000001FF
